:020000041000EA
:1000000000B5324B212058609868022188439860DF
:10001000D860186158612E4B002199600221596106
:100020000121F02299502B49196001219960352056
:1000300000F044F80222904214D00621196600F024
:1000400034F8196E01211966002018661A6600F04E
:100050002CF8196E196E196E052000F02FF8012189
:100060000842F9D1002199601B49196000215960AB
:100070001A491B48016001219960EB211966A021F2
:10008000196600F012F800219960164914480160C1
:100090000121996001BC002800D000471248134993
:1000A000086003C880F30888084703B5996A0420EC
:1000B0000142FBD001200142F8D103BD02B5186610
:1000C0001866FFF7F2FF186E186E02BD00000240BE
:1000D000000000180000070000035F00212200005C
:1000E000F4000018222000A00001001008ED00E03C
:1000F00000000000000000000000000074B24E7A12
:1001000000000420E3010010C3010010E903001007
:10011000C1010010C1010010C1010010C101001097
:10012000C1010010C1010010C10100104503001001
:10013000C1010010C1010010C9030010D503001057
:10014000CD010010CD010010CD010010CD01001037
:10015000CD010010CD010010CD010010CD01001027
:10016000CD010010CD010010CD010010CD01001017
:10017000CD010010CD010010CD010010CD01001007
:10018000CD010010CD010010CD010010CD010010F7
:10019000CD010010CD010010CD010010CD010010E7
:1001A000CD010010CD010010CD010010CD010010D7
:1001B000CD010010CD010010CD010010CD010010C7
:1001C00000BE00BE00BE00BE00BE00BE00F03FF894
:1001D000103800BE00202049086006C881F3088856
:1001E00010471E48006800282DD10CA40ECC002911
:1001F00002D000F010F8F9E719491A4A002000E08F
:1002000001C19142FCD1184988471849884700BE6E
:10021000FDE701C901C29A42FBD370478453021023
:10022000C0000020C41100209464021000000420CB
:100230000000042094640210001004200010042028
:100240000000000070470A480EF034FB0047EFF34F
:100250000580C0B27047000008ED00E0000000D04B
:10026000D011002050AF0020CD020010F9C20010C4
:1002700057560000F8B5C046F8BC08BC9E4670470B
:10028000F8B5C04610B5064C2378002B07D1054BB6
:10029000002B02D0044800E000BF0123237010BDF2
:1002A000209700200000000084020010044B10B5CD
:1002B000002B03D00349044800E000BF10BDC04636
:1002C000000000002497002084020010164B002B31
:1002D00000D1144B9D46402292029A1A9246002168
:1002E0008B460F461348144A121A10F0CDFA0F4BE2
:1002F000002B00D098470E4B002B00D098470020D1
:10030000002104000D000D48002802D00C480BF01D
:10031000F6FF0FF03BFE2000290008F0B7F90BF0C4
:10032000EBFFC046000008000000042000000000B1
:10033000ED850010D011002050AF0020FFC200104A
:10034000000000007046C0082CD3EFF309808169DB
:1003500002390978002929D101B50FC8B8470CBC6A
:1003600003C29E461E4B06CB91421ED0083B1A602C
:10037000002909D0EFF3098020388863F0C0444693
:100380004D4656465F46F0C0906B1030F0C8A04610
:10039000A946B246BB4680F309882038F0C802203F
:1003A000C0430047EFF30880D1E770470D4A136858
:1003B0009942FAD801B5890053589C460FC8E047C6
:1003C0000CBC10609E46704701B507F0D7FB03BC1C
:1003D0008E46C7E701B507F08FFB03BC8E46C1E729
:1003E000DC050020542A0210102304E0202302E040
:1003F000302300E040239C46F0B404AE7546E80884
:1004000001D3EFF309860E4F0FCE0FC70FBC0FC7F6
:100410004046494652465B460FC71DCE3100A60AEC
:1004200000D304316E0900D248311FC7EFF30980B1
:100430006946EFF3148663C7604601490BF004FB7D
:1004400044AC002001480421014B1847E00700207C
:10045000C5E8001002B47146490849000956490030
:100460008E4402BC7047C04602B471464908490038
:10047000095C49008E4402BC7047C0460022430814
:100480008B4274D303098B425FD3030A8B4244D35C
:10049000030B8B4228D3030C8B420DD3FF2209029E
:1004A00012BA030C8B4202D31212090265D0030B5D
:1004B0008B4219D300E0090AC30B8B4201D3CB0353
:1004C000C01A5241830B8B4201D38B03C01A524195
:1004D000430B8B4201D34B03C01A5241030B8B4297
:1004E00001D30B03C01A5241C30A8B4201D3CB0282
:1004F000C01A5241830A8B4201D38B02C01A524167
:10050000430A8B4201D34B02C01A5241030A8B4269
:1005100001D30B02C01A5241CDD2C3098B4201D381
:10052000CB01C01A524183098B4201D38B01C01AFF
:10053000524143098B4201D34B01C01A5241030976
:100540008B4201D30B01C01A5241C3088B4201D325
:10055000CB00C01A524183088B4201D38B00C01AD2
:10056000524143088B4201D34B00C01A5241411AF9
:1005700000D20146524110467047FFE701B5002006
:1005800000F0F0F802BDC0460029F7D076E77047CA
:1005900003460B437FD4002243088B4274D30309E4
:1005A0008B425FD3030A8B4244D3030B8B4228D385
:1005B000030C8B420DD3FF22090212BA030C8B42AB
:1005C00002D31212090265D0030B8B4219D300E04B
:1005D000090AC30B8B4201D3CB03C01A5241830BD0
:1005E0008B4201D38B03C01A5241430B8B4201D380
:1005F0004B03C01A5241030B8B4201D30B03C01AA9
:100600005241C30A8B4201D3CB02C01A5241830A22
:100610008B4201D38B02C01A5241430A8B4201D351
:100620004B02C01A5241030A8B4201D30B02C01A7B
:100630005241CDD2C3098B4201D3CB01C01A5241E2
:1006400083098B4201D38B01C01A524143098B426B
:1006500001D34B01C01A524103098B4201D30B0154
:10066000C01A5241C3088B4201D3CB00C01A524179
:1006700083088B4201D38B00C01A524143088B423E
:1006800001D34B00C01A5241411A00D201465241D7
:10069000104670475DE0CA0F00D04942031000D3F6
:1006A0004042534000229C4603098B422DD3030A4B
:1006B0008B4212D3FC22890112BA030A8B420CD35B
:1006C000890192118B4208D3890192118B4204D384
:1006D00089013AD0921100E08909C3098B4201D304
:1006E000CB01C01A524183098B4201D38B01C01A3E
:1006F000524143098B4201D34B01C01A52410309B5
:100700008B4201D30B01C01A5241C3088B4201D363
:10071000CB00C01A524183088B4201D38B00C01A10
:100720005241D9D243088B4201D34B00C01A5241E7
:10073000411A00D20146634652415B10104601D374
:100740004042002B00D54942704763465B1000D3FE
:10075000404201B5002000F005F802BD0029F8D0A4
:1007600016E770477047C046D0400B1CD1409C46EE
:10077000203AD3401843524263469340184370478F
:100780009140031C90409C46203A934019435242AA
:100790006346D340194370478446101C62468C461A
:1007A000191C634600E0C0461FB501F05BF8002845
:1007B00001D40021C8421FBD10B500F0B3FF404274
:1007C000013010BD10B501F04DF8002801DB00200C
:1007D00010BD012010BDC04610B501F043F800283F
:1007E00001DD002010BD012010BDC04610B500F095
:1007F000D5FF002801DC002010BD012010BDC0463F
:1008000010B500F0CBFF002801DA002010BD012058
:1008100010BDC0461C2101231B04984201D3000CCB
:1008200010391B0A984201D3000A08391B09984263
:1008300001D30009043902A2105C40187047C04679
:100840000403020201010101000000000000000099
:10085000002B15D1002A13D1002906DB01DC00286A
:1008600006D00020C043410802E080210906002094
:1008700007B4024801A14018029003BDE9FEFFFF42
:1008800003B4684601B5029800F012F9019B9E4638
:1008900002B00CBC7047C046002B11D1002A0FD10A
:1008A000002900D1002802D00021C943081C07B448
:1008B000024802A14018029003BDC046A9FEFFFFF6
:1008C00003B4684601B5029800F030F8019B9E46DB
:1008D00002B00CBC7047C046F0B5CE464746150482
:1008E0002D0C2E0080B50704140C3F0C9946030C08
:1008F0007E435D43674363437F19340CE4199C4690
:10090000A54203D980235B029846C4444B46434327
:100910005143250C36046544360C2404A4195B1994
:10092000591820000CBC90469946F0BDF0B54F46D2
:100930004646D646C0B5040082B00D0091469846A2
:100940008B422FD82CD04146484601F06BFE29003F
:100950000600200001F066FE331A9C46203B9A46B2
:1009600000D576E04B46524693401F004B46624608
:1009700093401E00AF4228D825D05346A41BBD414A
:10098000002B00DA7BE00022002300920193012378
:10099000524693400193012362469340009318E02E
:1009A0008242D0D900220023009201930A9B002B9F
:1009B00001D01C605D600098019902B01CBC90469B
:1009C0009946A246F0BDA342D7D900220023009247
:1009D00001936346002BE9D0FB0798464146720815
:1009E0000A437B0866460EE0AB4201D1A2420CD816
:1009F000A41A9D41012024196D410021013E2418B3
:100A00004D41002E06D0AB42EED9013E24196D4176
:100A1000002EF8D100980199534600196941002B26
:100A200023DB2B005246D3402A006446E2401C00E0
:100A300053461500002B2DDB26005746BE403300E1
:100A400026006746BE403200801A9941009001910D
:100A5000ACE7624620239B1A4A46DA4061461300FF
:100A600042468A4017001F4380E7624620239B1AB4
:100A70002A0066469A402300F3401343D4E76246B7
:100A8000202300219B1A0022009101920122DA40CA
:100A9000019280E72023624626009B1ADE402F0049
:100AA000B0466646B74046463B003343C8E7C046BB
:100AB000F0B583B016001F000090019101F0BEFD5B
:100AC00004000D0002000B0030003900FFF704FFA6
:100AD000009A019B121A8B41089920000A604B6012
:100AE000290003B0F0BDC046F0B54F464646D64695
:100AF0000C000903C0B5490A470F5E0039431F03C4
:100B0000DB0F9C4665007B0A570F1F436D0DE40FFA
:100B1000760DA146C000B846D200AB1B64457BD021
:100B2000002B5FDD002E00D0A4E03E00164300D174
:100B300012E15E1E002E00D09EE1871A4346B842A5
:100B400080410125C91A4042091A0B0200D431E143
:100B500049024E0A002E00D16EE13000FFF75AFE26
:100B60000300083B1F2B00DD61E120223900D21A6F
:100B70009E40D1409F400E439D4200DD51E15D1BF0
:100B80006B1C1F2B00DD7CE12021C91A3D003000C9
:100B90008F408840DD40791E8F4131000722284375
:100BA000D940002507433A40002A09D00F233B4093
:100BB000042B05D03B1DBB42BF417F42C9191F001A
:100BC0000B0200D426E26A1CC64B55056D0D9A42F5
:100BD00000D106E1C44AFF080A40530752023B43D2
:100BE000120B8EE0002B00D0B8E06B1C5B055B0D98
:100BF000012B00DC30E1871A4346B842B641CB1ADC
:100C000076429E1B330200D54CE13B003343A1D119
:100C100000220024002570E0002B00DCE5E0002E1F
:100C200000D183E0AF4EB54260D080263604374312
:100C3000B846382B00DC3EE1434613431F007A1EC2
:100C400097413F1887428041404209180B0200D467
:100C5000B0E0A44B01359D4200D1C3E0A24A7B081D
:100C60000A4001210F401F435108D30707221F43A9
:100C70003A4099E79B4EB54238D080263604374338
:100C8000B846382B00DDDCE01F2B00DC30E11E0015
:100C90004746203EF740BC46202B04D04026F31A9E
:100CA00046469E403243170063467A1E97411F43D3
:100CB000CCE0002B00D104E24346134300D159E1BC
:100CC0004B07C00818438023C9081B03194208D0EA
:100CD0004546ED081D4204D14346D0085907084354
:100CE0002900420FC9007F4D1143C0004B07CA08BD
:100CF0007C49C00803438D4268D012036D05120B76
:100D00006D0D002112031800130B0A0D12051A4372
:100D1000764B2D0513402B435B00E4075B08234310
:100D200019001CBC90469946A246F0BD3E001643F1
:100D300012D05E1E002E00D000E18718874280414D
:100D400041444042091801250B0233D5022585E7AD
:100D500064463300414610001D00C7E7002D00D057
:100D6000DAE00C000443F3D05C1C00D19FE15D4C41
:100D7000A64200D12FE1DB43382B00DD66E11F2BBB
:100D800000DD83E120240500E41A0F00DD40D94096
:100D9000A0404346A7405B1A441EA04198462F43FB
:100DA0003843171ABA42924143465242991A64464E
:100DB0003500CAE607223A40002A00D0F6E64B0783
:100DC000CA084849FF083B438D4296D11900114398
:100DD00000D19EE1802109030A431203120B414D09
:100DE0008FE71500002200238BE7002B00D0C7E01F
:100DF0006B1C5F057F0D012F00DCF1E0394DAB422C
:100E000000D1B9E085180A0085428941424449422F
:100E100051180722CF076D082F4349083A401D009B
:100E2000C2E607223049ED1A31403A40BCE63E00A6
:100E30002838864000279FE63800FFF7EBFC20307B
:100E40008EE6434613431F007A1E9741C71BB842E4
:100E500080414042091A78E60E003B0006431343E6
:100E6000002D61D1002E00D0F4E0002B00D11BE159
:100E700064463900100039E71A4FBB427AD033007C
:100E8000FFE630001F3DE840202B03D04021CB1A65
:100E90009E4037437B1E9F41072207433A40002173
:100EA000002589E7171A4346BA42B641591A7642D5
:100EB0008E1B64464EE61F2B00DDADE02026474624
:100EC000F61AB740B9461700B246DF404E463E43D9
:100ED00037005646B240561EB24117434246DA40EA
:100EE0008918AEE6FF070000FFFF7FFFFFFF0F80BE
:100EF00020264746F61AB740B9461700B246DF40EB
:100F00004E463E4337005646B240561EB241174346
:100F10004246DA40891A99E77F4CA6425BD080248A
:100F200024045B42214327E7002E0CD1002B00D183
:100F3000CBE0644639001000774DD7E6764FBB42D0
:100F400018D0330075E6002B14D04B07C0081843A7
:100F50008023C9081B03194207D0FC081C4204D196
:100F60007907D0080843E14621004C46420FC900EA
:100F70001143C000684DB9E61D0000220023C0E601
:100F8000002D5BD10D00054300D1E2E65D1C00D1D0
:100F9000B0E0614DAE421FD0DB43382B71DC1F2B1C
:100FA00000DD96E020250F00ED1AAF40B94607009E
:100FB000AA46DF404D463D432F005546A840D94044
:100FC000451EA84188440743BF18974292415142A9
:100FD000414435003AE6644635004146100085E656
:100FE0000B000343002D00D063E6002BF5D04346F1
:100FF000134300D17AE68718874280410722414493
:10100000404209183A400B0200D4D5E6434B013563
:101010001940C9E5380069E61E004746203EF74002
:10102000BC46202B04D04026F31A46469E4032434D
:10103000170063467A1E97411F4302E6364DAE42C3
:10104000CAD080252D045B422943A6E70843411EF0
:101050008841A6E6002B00D148E6871A4346B842ED
:10106000B641CB1A76429E1B33024BD5171A434624
:10107000BA429241591A5242891A072264463A40AA
:1010800092E501430F00791E8F419DE71C000F0080
:10109000203CE740202B03D04024E31A994008432A
:1010A000411E884138437CE60022002425E6171AB9
:1010B0004346BA429241591A5242891A644635004F
:1010C00043E541461000144D10E68022002412032F
:1010D00080E61D000F00203DEF40BC46202B03D0D2
:1010E0004025EB1A9940084307006346781E874164
:1010F0001F4369E7871897429B4141445B42C918E7
:101100003500A3E53B003343CED0072231003A40FF
:1011100052E600231A00F4E5FF070000FFFF7FFFFF
:10112000F0B55746DE464E464546E0B583460700D5
:101130000E03480085B092461C00360B400DCD0FC3
:10114000002800D19DE0954B984239D08023F600CD
:101150001B041E43924A7B0F334399469446030077
:101160006344009300230026FF00029323031B0B1C
:1011700098466300E40F52465B0D019400D1B3E042
:1011800086498B4200D19EE04246D1008022120463
:101190000A435146490F11438B46814952468C46BA
:1011A00000996344CB1A0021D20000932B006340C6
:1011B0009A460F2E00D905E17A4BB6009B599F46FF
:1011C0005B463343994600D0B8E002230826002747
:1011D00000900293CAE7CB463A0002990195019B21
:1011E0009A46022927D0032900D180E2012944D060
:1011F0006D49009B8C4663441C00002C38DD53076E
:1012000000D013E2D2085B46DB0109D55946674B93
:1012100019408B468021C9008C46009B63441C000A
:10122000634B9C4207DC5B4664055F075B02174328
:101230001B0B620D02E000230027584A00211B030C
:101240001C0B0B0D1B05234314055A4A3800134091
:101250001C4353466400DB0764081C43210005B0AF
:101260003CBC90469946A246AB46F0BD0122524294
:1012700001231B1B382B00DCADE1002200230027DB
:10128000DCE75B46334399465ED0002E00D18AE10D
:101290003000FFF7BFFA03000B3B1C2B00DD7BE1A6
:1012A0001D22D31A5A460100DA4008398E40130035
:1012B0005F46334399468F403F4B00261B1A0093ED
:1012C0000023029352E7414653460B433B499B465A
:1012D0008C46009B634400935B46002B3BD102236A
:1012E00000221E43022161E7434613439B4637D049
:1012F0004346002B00D162E14046FFF78BFA030022
:101300000B3B1C2B00DD53E102004146083A9140A3
:1013100088461D21CB1A5146D9400B0041460B434C
:101320009B46534693401A00009B25499C466044C7
:1013300003008C4663440093002137E70323B14642
:1013400000900C26029311E700230093013304263A
:10135000002702930AE70323C3461E43032125E720
:1013600001331E430022012120E700239A468023F7
:1013700000271B03094A61E7802349461B031942E2
:1013800000D1E2E05946194200D0DEE00B431B03D6
:1013900017001B0BA246014A50E7C046FF0700009A
:1013A00001FCFFFFE05A0110FF030000FFFFFFFEFA
:1013B000FE070000FFFF0F800DFCFFFF01F8FFFF9D
:1013C000F3030000D94500D9CBE000D1C6E03C00D2
:1013D00048460027009B013B00935B46160E1B020C
:1013E0001E431302984633041B0C9946310C01919D
:1013F000FFF7CAF84A4642430B04210C0500194383
:101400008A4207D98919013D8E4203D88A4201D9FF
:10141000851E8919881A0199FFF7B6F809048C46C8
:101420004A46210464464243090C030021438A4290
:1014300004D98919013B8E4200D8F1E02D041D43E7
:10144000AB464346891A4246280C12041D0C5B46E3
:10145000140C22001B041B0C5A4303946B4344439B
:10146000029568431B19150CEB189C4203D9802484
:101470006402A44660441C0C15041B042D0C2018A7
:101480005D19814277D373D00C1AA24A7D1BAF42FB
:10149000BF419446009B7F426344E01B1C00864290
:1014A00000D1DBE00199FFF76FF84A4642430B0495
:1014B000290C070019438A4207D98919013F8E4236
:1014C00003D88A4201D9871E8919881A0199FFF722
:1014D0005BF809044A46894629044D464243090CF3
:1014E000030029438A4207D98919013B8E4203D858
:1014F0008A4201D9831E89193F04891A3A00039F41
:101500001A43380013041B0C584381460298150CEB
:101510006F43434345434846000C8446DB1963440C
:101520009F4203D9802040028446654448461F0CF0
:1015300000041B04000C7D191818A94200D284E095
:1015400000D17FE001231A4357E680234A461B035C
:1015500013431B031B0BAA466F4A6FE6BA4200D91E
:1015600035E74B46DC0758087B081C43FF0734E788
:101570000024AF4289D247444745A4415B466442B8
:10158000A4196418013BA6421ED2A0426DD800D116
:10159000B6E0241A9B4678E703005A46283B9A4057
:1015A0000027914688E65846FFF734F9203072E666
:1015B00003005246283B9A4093460022B4E6504628
:1015C000FFF728F920309AE6A642E2D1B845DCD9E7
:1015D000341A9B4659E71F2B65DC504C0099A446F2
:1015E0005C46614408008C4011008240D940501E86
:1015F00082410C4314435A46DA401300620709D073
:101600000F222240042A05D02200141D9442894151
:1016100049425B181A0262D50122002300270DE619
:101620008A4200D80AE7831E891907E70F2313406F
:10163000042B00D1E6E5171D9742924153429B448B
:10164000FA08E0E5002800D1D7E57118531EB14231
:1016500027D3A94215D358D01A0073E7002B00DC1A
:1016600004E6012300229B44CDE50223474447457D
:1016700089415B429C46494289190C19E344241A6A
:1016800003E743465F0047459B41B8465B429E19CE
:10169000023A8919A94200D054E7404500D051E7E9
:1016A000ABE51A00F6E71F215F4649420C1BE740F5
:1016B000202B07D01A49009B8C46634418005B46D8
:1016C00083401A43501E82413A43072700231740A4
:1016D00009D00F21002311401400042995D12200C4
:1016E0005F075B021B0BD20817430022A6E580238D
:1016F00059461B030B431B0317001B0B064A9DE5B2
:10170000BD42B2D89B460024BFE68045B9D31A003B
:10171000C3E7C046FF030000FF0700001E040000EF
:101720003E040000F0B54F464646D6468446C0B556
:101730008046194E18030F034D00000B5C008246D3
:101740003F0B6D0DC90F9146640DDB0F0120B542B3
:101750000AD0B44203D0A54201D157450CD01CBCDD
:1017600090469946A246F0BD66463E43F7D1AC424C
:10177000F5D154461443F2D10120C845EFD1994226
:1017800007D0002DEBD163461F433800471EB841F8
:10179000E5E70020E3E7C046FF070000F0B54F464D
:1017A0004646D6464D00C0B50E03C90F8A462C49A1
:1017B0001F035C008046360B6D0D91463F0B640D98
:1017C000DB0F8D421ED08C4216D0002D1ED130432F
:1017D0008446002C01D13A4323D06246002A1AD015
:1017E0009A4529D0514602200139084001381CBCD5
:1017F00090469946A246F0BD39001143E5D002203B
:101800004042F4E73043FAD1AC420FD0002C0FD164
:101810003A43E7D00CE00122013B9343180001302A
:10182000E5E763460020002BE1D0DBE73A43E6D151
:101830009A45D7D1A542D5DCA54205DBBE42D1D819
:1018400008D00020BE42D2D250460123013898432E
:101850000130CCE7C845C5D80020C845F4D3C6E759
:10186000FF070000F0B54F464646D6464D00C0B5CE
:101870000E03C90F8A462E491F035C008046360BB3
:101880006D0D91463F0B640DDB0F8D4218D08C42DD
:1018900011D0002D18D130438446002C1ED13A437C
:1018A0001CD163460020002B30D051460220013964
:1018B000084001382AE039001143EAD0022025E02F
:1018C0003043FBD1AC4226D0002C26D13A4324D160
:1018D0005146022001390840013817E06246002ACB
:1018E0000FD09A45E1D1A54205DBBE42DDD819D023
:1018F0000020BE420AD250460123013898430130ED
:1019000004E00122013B9343180001301CBC9046C7
:101910009946A246F0BD3A43D0D19A45C5D1A542D9
:10192000C3DCE0E7C845C0D80020C845E3D3EDE7F5
:10193000FF070000F0B55746DE464E464546E0B587
:10194000834606000F03480087B092461D003F0BF8
:10195000400DCC0F002800D16FE0DE4B984238D00C
:101960008023FF001B041F43730F3B430193DA4B9B
:101970000027994600239B46F60081442B0369000B
:101980001B0B52469846490DED0F002900D185E00A
:10199000D04B994200D173E04346DA0080231B0408
:1019A00013435246CC48520F8446134352460020FC
:1019B0006144D20089442100694000918C46012194
:1019C00049448A460F2F00D990E0C449BF00CF593F
:1019D000BF465B463B43019300D06AE102230827E0
:1019E000002681469B46C9E732005846019B614666
:1019F0000091022800D175E0032800D1FEE1012802
:101A000000D02CE100230027002600253F032A0DEB
:101A10003F0BB34812053A4302401B051343009A9B
:101A20005B00D1075B080B433000190007B03CBCDA
:101A300090469946A246AB46F0BD5B463B430193B8
:101A400000D12FE1002F00D1A5E13800FEF7E2FE22
:101A500003000B3B1C2B00DD96E11D22D31A5A46D6
:101A60000100DA405E4608398F4013008E403B4348
:101A700001939C4B00271B1A994600239B467DE748
:101A8000414653460B4393498C46E144002B00D01A
:101A90001AE102220220174300228CE7134300D1EF
:101AA0000DE14346002B00D181E14046FEF7B2FE36
:101AB00002000B3A1C2A00DD72E10100434608399E
:101AC0008B4098461D239A1A5346D3401A0043462A
:101AD000134352468A404946081A8249894681443E
:101AE000002068E77B4B002700268EE7140C1204C9
:101AF000120C1100370C3604350C794328008C4643
:101B00002E0060436044834656432100300C8046DB
:101B10005846794340440291844506D9884680213D
:101B200049028C46E044414602913604010C360CD1
:101B300000048B4681191E0C1B041B0C0391190019
:101B400079438C46280075436544A8465843050CE4
:101B500045447743A94203D9802149028C46674412
:101B6000290C8C4639000004000C2D042D1861440A
:101B7000AB4405915946049101990F043F0C080CA0
:101B8000390051434243904602008C46090C8B4673
:101B900062437C4344445C44A04503D9802149020C
:101BA00088464244210C884661460904090C8C464B
:101BB00039005943434370437E430F0CF618240405
:101BC000BE19644442448C46B34203D980235B026D
:101BD00098464044029B61469846049B3704434420
:101BE0009B46AB45AD416B420D0405992D0C8C46CF
:101BF0007F196744FD18A8465D462D19A542A441EA
:101C000093466442A446C344DC448F42BF41984596
:101C10009B4193459241A445A4415B427F421F43AF
:101C2000360C52426442BF192243BF18624638182C
:101C30004302D20D039913436A020A43501E8241A4
:101C40006146ED0D2A434E023243D90100D4B3E080
:101C50000126500832400243DE0732435B08224C23
:101C60005444002C62DD510709D00F201040042895
:101C700005D0101D9042924152429B180200D9019A
:101C800004D580241948E400034054441848844291
:101C900000DD27E75E075B02D2081F0B63051643D2
:101CA0005B0DB2E6002399460133042700269B46CC
:101CB00064E60323019781460C279B465EE60122DA
:101CC00001201743002276E6032303201F434346E7
:101CD00071E6C046FF07000001FCFFFF205B01101A
:101CE000FFFF0F800DFCFFFFFF030000FFFFFFFE63
:101CF000FE0700000023802700933F030026434B8C
:101D000083E6019B3200A446584670E6AC466EE678
:101D1000802701993F0339422DD03B422BD11F43ED
:101D20003F033F0B00951600384B6EE601252D1B37
:101D3000382D00DD66E61F2D40DC35481C00504480
:101D4000160082408440EE40501E824134431443CA
:101D5000EB40620709D00F222240042A05D022005E
:101D6000141D9442804140421B181A023ED50123A3
:101D70000027002649E68027019B3F031F433F03BE
:101D80003F0B0094214B40E603005A46283B9A4003
:101D9000002601926DE65846FEF73CFD203057E6DE
:101DA00003005246283B9A401300002293E6504617
:101DB000FEF730FD20307BE6CA4650E71F201E00AC
:101DC0004042041BE640202D03D0124C5444A34053
:101DD0001A43501E8241324307260027164009D07D
:101DE0000F200023104014000428B9D122005E0700
:101DF0005B021F0BD2081643002306E680273F0331
:101E00001F433F033F0B1600004BFEE5FF0700009A
:101E10001E0400003E040000F8B557464E464546F5
:101E2000DE460C000903E0B5490A460F5F00314366
:101E30001E03DB0F760A9B46530F3343C84E6500E3
:101E4000C000E40FD2006D0DA24681467F0D9C4676
:101E50009046B74200D1B9E05B46012673409B46ED
:101E6000EE1BA34500D183E0002E63DD002F00D0E0
:101E7000B1E06346134300D123E1731E002B00D071
:101E8000BAE1861A6346B04280410125C91A404230
:101E9000091A0B0200D447E149024B0A984643460F
:101EA000002B00D189E14046FEF7B4FC0300083B5B
:101EB0001F2B00DD7CE120223000D21A4146D040A9
:101EC000994002009E400A439D4200DD6AE15D1B8D
:101ED0006B1C1F2B00DD94E1202110003500C91A76
:101EE0008E40DA408840DD40711E8E41110007228D
:101EF0002843002506433240002A09D00F233340EF
:101F0000042B05D0331DB342B641764289191E0019
:101F10000B0200D43DE26A1C914B55056D0D9A42AF
:101F200000D119E18F4AF6080A4057075202374399
:101F3000120B9BE0002E00D0C5E06E1C7605760DDE
:101F4000012E00DC48E16746861ACB1BB042BF4138
:101F50007F42B8461F004346FF1A3B00B8461B02AB
:101F600000D55FE137439AD100220024002579E0B3
:101F7000002E00DCFAE0002F00D18DE0784B9D426E
:101F800067D0802367461B041F43BC46382E00DC05
:101F900052E1634613435A1E93411E188642804104
:101FA000404209180B0200D4BEE06D4B01359D4242
:101FB00000D1D2E06B4A73080A4001210E401E4353
:101FC0005108D30707221E43324095E71E001643EF
:101FD00000D045E740E7624B9D423AD080236746F8
:101FE0001B041F43BC46382E00DDEBE01F2E00DC37
:101FF0003AE133006746203BDF403B00202E05D00E
:102000004027BF1B6646BE40324390464646721E7E
:1020100096413343DAE0002B00D114E263461343C8
:1020200000D168E180234E07C008C9081B0306439E
:10203000194208D06046C008184204D16346010026
:10204000D2085E071643F3009946C900720F444D4B
:1020500011434B46DE08424B4F073743CA089D42A7
:1020600000D16EE012036D05120B6D0D00211203FD
:10207000130B0A0D12051A433B4B2D0513402B433E
:102080005B00E4075B082343380019003CBC904622
:102090009946A246AB46F8BD6346134311D0731E62
:1020A000002B00D007E186188642804161444042FF
:1020B000091801250B0237D502257BE73E00614652
:1020C00091463500C5E75C46002D00D0E1E00B00ED
:1020D0000343F3D0731C00D1ACE1214B9F4200D1EC
:1020E0003AE1F343382B00DD6FE11F2B00DD8CE17B
:1020F00020250E00ED1AAE40B0460600AA46DE408E
:10210000454635432E005546D940A8406346451EF6
:10211000A8415B1A9C463043161AB242924163466C
:102120005242991A3D00B4E607223240002A00D0FC
:10213000E4E60B4BF6084F073743CA089D4200D030
:1021400090E73B00134300D1A6E180231B031A4311
:102150001203120B024D89E715000022002785E7C4
:10216000FF070000FFFF7FFFFFFF0F80002E00D062
:10217000C7E06B1C5E05760D012E00DCF0E0C84D5B
:10218000AB4200D1B9E085180A008542894162441A
:10219000494251180722CE076D082E4349083240A4
:1021A0001D00A9E6BF49ED1A114007223240A3E6FF
:1021B000320028388240002686E63000FEF72AFBEF
:1021C000203073E6634613435A1E9341C61AB04249
:1021D00080414042091A5CE60E00674606431743F9
:1021E000002D5ED1002E00D0F3E0002F00D11EE1C3
:1021F0005C46614691462CE7A94FBE427BD01E004B
:10220000F1E610001F3DE840202B03D04021CB1AFF
:102210009A401643731E9E41072206433240002116
:10222000002583E7161A6346B2428041591A40429C
:102230000B1A98465C4632E61F2E00DDABE02027E5
:10224000BB1B9A4663465746BB40994613004F4610
:10225000F3401F433B005746BA40571EBA41134351
:102260006246F240891898E62027BB1B9A466346CF
:102270005746BB40994613004F46F3401F433B006F
:102280005746BA40571EBA4113436246F240891A74
:102290009CE7834B9F425FD080252D0473422943E6
:1022A00020E7002E0CD1002F00D1D0E05C46614623
:1022B00091467B4DCDE67A4FBE421CD01E0065E6AE
:1022C000002F18D0C0084E0706438020C90800031D
:1022D000014208D06346DC08044204D12100DA46FA
:1022E000D2085E071643F300994601245346C900FD
:1022F000720F11431C406A4DABE61D0000220027FF
:10230000B4E6002D59D10B00034300D1D6E6731C6F
:1023100000D1B2E0624B9F421ED0F343382B6FDCFA
:102320001F2B00DD97E020250E00ED1AAE40B046D1
:102330000600AA46DE40454635432E005546A840D5
:10234000D940451EA8418C440643B6189642924196
:10235000514261443D0025E63D006146914678E6E4
:102360000B000343002D00D055E6002BF5D063464B
:10237000134300D16DE68618864280416144404295
:10238000091800220B0200D4D0E6464B0135194053
:10239000B2E5B1465DE633006746203BDF403B00D7
:1023A000202E05D04027BF1B6646BE4032439046D4
:1023B0004646721E96413343EFE5394B9F42CBD0E0
:1023C00080252D0473422943A8E70843411E884114
:1023D000A2E6002F00D13CE66346861ACF1AB0422F
:1023E0009B415B42FB1A98461B024ED5161A634668
:1023F000B2429241591A5242891A5C4600227BE548
:1024000001430E00711E8E419FE71D000E00203D0E
:10241000EE40B046202B04D04025EB1A99400843EB
:10242000814648464346411E8841184374E60022CF
:10243000002417E6161A6346B2429241591A5242D4
:10244000891A3D0025E561469146154D01E6802239
:102450000024120379E61D000E00203DEE40B04638
:10246000202B04D04025EB1A9940084381464E4664
:102470004346711E8E411E4367E7861896429B4174
:1024800061445B42C9183D008CE547463743CED0D6
:1024900007224146324049E600273A00E6E5C046B9
:1024A000FF070000FFFF7FFF70B50C4E0D031C03FC
:1024B00049005B002D0B490D240B5B0DB14208D088
:1024C000064900208B4203D114432000441EA04142
:1024D00070BD05430120002DFAD1F1E7FF07000090
:1024E00030B5144D0A034B00120B5B0DC90F0024CD
:1024F000AB4211DD104CA34210DC80246403224364
:102500000E4CE41A1F2C0CDD0D48C31ADA401300E0
:102510005C42002900D11C00200030BD094BCC18C2
:10252000FAE7094DE040AC4663449A401300034388
:10253000EEE7C046FE0300001D0400003304000067
:1025400013040000FFFFFF7FEDFBFFFF70B50028C5
:102550002DD0C317C5185D40C40F2800FEF75AF9E7
:10256000154B1B1A5B055B0D0A2815DD0B388540E2
:1025700000222D032D0B002110002D030A0D2D0B21
:1025800012052A430D4D1B052A4013435B00E40747
:102590005B082343190070BD0200290015329140E9
:1025A0000A000B21081AC5402D032D0BE3E7002478
:1025B000002300250022DEE71E040000FFFF0F803D
:1025C00010B5041E25D0FEF725F9144B1B1A5B0528
:1025D0005B0D0A2812DD0B38844000222403240BF3
:1025E0000021100024030A0D240B120522430C4C79
:1025F0001B05224013435B00590810BD0200210057
:10260000153291400A000B21081AC4402403240B00
:10261000E6E7002300240022E2E7C0461E04000093
:10262000FFFF0F8010B5002903D1FEF7F3F820302B
:1026300002E0081CFEF7EEF810BDC046F0B54E46AD
:102640005746DE464546E0B50F00002183B0060040
:102650008946002F06DA3900002746428F410121C2
:1026600049428946002B07DA4946C943100089468A
:102670001900002342428B4134003D0092469846A7
:10268000BB4269D866D041465046FFF7CBFF834630
:1026900039003000FFF7C6FF5B461B1A9C46203B03
:1026A0009B4600D575E05146584681400B00514687
:1026B000604681400A00BB4261D85ED034003D00D4
:1026C0005946A41A9D41002900DA7AE00021002031
:1026D00001260090019159468E40019661460126DF
:1026E0008E4061460096002950D0D90756085F08F1
:1026F0000E4363460EE0AF4201D1A6420CD8A41BA4
:10270000BD41012124196D410022013B641855414E
:10271000002B06D0AF42EED9013B24196D41002BAE
:10272000F8D1009801995B4600196941002B3DDB07
:102730002E00DE4063462C00DC405B46002B4BDB6A
:1027400034005D46AC4023006446A6403200801A47
:10275000994103E0B24296D9002000214B46002B5C
:1027600004D003000C0000215842A14103B03CBC3E
:1027700090469946A246AB46F0BDB1429ED9002193
:1027800000200090019161460029AED10098019986
:10279000E4E72023624651469B1AD9404046009107
:1027A00061468840030000990B4380E7624620237E
:1027B0009B1A2A009A40260013006246D6401E4308
:1027C000B8E7614620260127761A00200021F7404D
:1027D00000900191019781E767462023624635000A
:1027E000BC409B1ADD4023002B43ADE7024670B589
:1027F0000A4392072AD11E4DEE0104C808C9541B92
:102800009443344017D0D0B2D9B2401A21060143C4
:1028100010D190B299B2401A210401430AD110029A
:102820001902000A090A401A2102014302D1100EBE
:10283000190E401A70BD9A42DFD010BA19BA8842F8
:1028400001D9012070BD0020C04370BD02780B7813
:1028500001300131002A09D09A4207D102780B7861
:1028600001300131002A01D09A42EFD0D01A70BD58
:042870000101010160
:1028740030B51D4D85B0280001F0F3FC1A2003F09B
:102884008DFE5F23194C1A4A20600093002319001F
:1028940003F0C1FC174B00221860012302931F337D
:1028A400019360330093144B8000C358082128001F
:1028B40001F04AF8280001F065FF104B104A00931C
:1028C4000021104B206803F0A6FC20600E4C81B25E
:1028D400200000F0E7F8200000F09DF9142003F038
:1028E40037FE05B030BDC046ACA9002094AE002030
:1028F4000604000090AE002044020020FF7F000088
:0C290400FF0300000180FFFF64AA002018
:10291000012130B5114C85B000915023104A2000A0
:1029200000F02EF90F4D10492A00200009F0E2FCBA
:102930000E4B0F4C02930F4B2022019301235B425D
:10294000009380210C4B200001F070FB2A000B4902
:10295000200009F0CFFC05B030BDC04664AA0020BD
:102960003512000040020020D12B0010A08601008B
:10297000ACA90020801A0600549700209140001056
:1029800037B501240B4800F0AFFC0B4D23003C226F
:1029900002212800009401F077FC280001F063FC7C
:1029A0002100192003F03AFE00211A2003F036FE20
:0C29B00037BDC04654970020ACA90020A1
:0229BC00704762
:0229BE00704760
:0229C00070475E
:0229C20070475C
:0C29C400AB23838100487047B01902105B
:1029D000F0B5050000208FB081425DD102AB9E1D95
:1029E000272230000DF050FF2B6828005B6B9847C2
:1029F0002B6807005B6B280098472B0029331B7856
:102A0000264A00932B0003AC2A331B7862821222E1
:102A1000FF32A28222220193214B22762380E13BC6
:102A2000FF3BA37002236A46677607270012A07651
:102A30000520FF331278A380413BE371B73B6372FB
:102A40006277053B174AA372023B6373E283013B43
:102A500002AAF377D619F77704AE2077F07704301F
:102A600080186A4612790321C2770A2002AA8018C8
:102A7000C1774020A173083189182235C877FF3506
:102A80000DA9E3732374E375E77629220B70280000
:102A900021000DF067FE28000FB0F0BD09210000F5
:082AA0000902000003400000E0
:0A2AA800FF30C173090A0174704782
:102AB400F0B58BB00D00060014002F49242201A8A4
:102AC4000DF04EFE032D19D833002800A20001A9F1
:102AD400FF338A18FDF7C6FC02162A3D00200325A1
:102AE40001263400291A8C40175CE4B2D97C002FEB
:102AF40006D021430130D9740428F2D10BB0F0BDC3
:102B0400A143F7E70020072501263400291A8C4049
:102B1400175CE1B2DC7C002F05D02143D97401306D
:102B24000428F2D1EAE78C43DC74F8E7002003259B
:102B340001263400291A8C40175CE4B2197D002F59
:102B440005D02143013019750428F2D1D6E7A143F9
:102B5400F8E70020072501263400291A8C40175C69
:102B6400E4B2197D002F05D02143013019750428E2
:0C2B7400F2D1C3E7A143F8E7045A0110B6
:102B8000F0B585B01E000AAB040015001F880AF0DE
:102B90002BFC002301001A000095029701962000EB
:102BA00000F098FA2000094B4D3008332360FF30C5
:102BB00009F0ACFF0025E9B2082220000135FFF73B
:102BC00079FF042DF7D1200005B0F0BD6019021087
:102BD00070B5040000250A4B08330360E9B20822EF
:102BE00020000135FFF766FF042DF7D120004D309E
:102BF000FF3009F0C7FF200000F0F6F8200070BD9C
:042C00006019021045
:102C040010B50400FFF7E2FFB8212000490009F0E5
:062C1400B9FD200010BD17
:102C1A0030B504004D34FF3493B00500200009F0AC
:102C2A0078FF012301A90B711800FD30285CCA182E
:102C3A0001331071242BF7D1013B28000B6000F0FF
:102C4A006AFA0500200009F080FF280013B030BDA1
:022C5A007047C1
:0E2C5C0010B5040003681B6B9847A08910BDDB
:0E2C6A00CB880079181A43425841C0B2704717
:042C7800042070477D
:082C7C0000487047761B0210AE
:082C840000487047601B0210BC
:102C8C0030B5050089B00922002102A80DF0F6FD2F
:102C9C002B00FD331878013B1978154B1B2201933F
:102CAC00022301AC63719F33A371A03BE3717433B6
:102CBC0023726D3B63720D33A372F03BA3817133AE
:102CCC00FF33A37323750B4BE073E3820A4B0B4862
:102CDC00AA8123830E35D23B05906175FF3B210001
:102CEC002800A3760DF038FD280009B030BDC04691
:102CFC0006ABFF0A090200009102000009018102E3
:102D0C00F0B5050000208FB081425ED102AB2722C6
:102D1C00981D0DF0B3FD2B6828005B6B2F7998473D
:102D2C002B6806005B6B280098472B0029331B7817
:102D3C0003AC9C462B002A331B78E7720193244B7F
:102D4C0022272380E13BFF3BA3700223FF33A380A8
:102D5C00413BE371B73B6372053BA372023B637368
:102D6C001C4B27766746638212232522667607263C
:102D7C000012A07605206777174FFF33A382E783F5
:102D8C00113B02AFFF3BBF1802AA3B709719E676C6
:102D9C00FE7704AE2077F077043080186A461279FB
:102DAC000321C2770A2002AA8018C1774020A173A0
:102DBC0008318918C87749350DA90B7029222100D3
:102DCC002800E3750DF0C8FC28000FB0F0BDC0461C
:0C2DDC0009020000092100000340000073
:102DE80010B504000A4B0833036002F095FA08F0A6
:102DF800D5F82000403006F08FFE2000343006F071
:102E08008BFE20002C3006F087FE200010BDC04647
:042E1800101B021079
:102E1C0010B50400FFF7E2FF80212000490009F003
:062E2C00ADFC200010BD0A
:102E340010B50400024B036006F0D2FC200010BD64
:042E4400641A0210FA
:102E480010B50400FFF7F2FF2000302109F098FCCC
:042E5800200010BD89
:0A2E5C0010B50C220DF080FC10BD33
:082E660010B502F08EFA10BD58
:102E6E0070B50400042918D005003C352B78002BD2
:102E7E0006D103002933197802F086FA01232B704C
:102E8E00250048352B78002B07D123002A331978DB
:102E9E00200002F079FA01232B702000343006F066
:102EAE00F0FD2000403006F0ECFD20002C3006F046
:042EBE00E8FD70BDFE
:102EC40070B50D00040040220321280006F07FFDA8
:102ED40023002933187040220321280006F07EFDC8
:102EE4002A342070280006F007FD002804D1892226
:102EF4000249034808F0E4FE70BDC046F11A02100E
:042F0400FC1A0210A1
:102F080070B5040002F03CFA230029331978200038
:102F1800250002F064FA012320003C352B70343080
:102F280006F0B2FD2B78002B03D0236820005B6CE1
:042F3800984770BD89
:102F3C0070B5040002F022FA23002A33197820001D
:102F4C0002F037FA23002500B83318600123200063
:102F5C0048352B70403006F095FD2B78002B03D0B4
:0A2F6C00236820001B6C984770BD1D
:102F7600F7B51F00042300921370CA880379040072
:102F86000D0000269A4217D14B78B34216D0002680
:102F96006A78012A10D1EB78092B0DD12300A98874
:102FA600BC33197021003F262B89B83101330B60E1
:102FB600009BBD343C601A703000FEBDCB78062BFA
:102FC600E6D18B881B120193212B1AD0222BDFD13D
:102FD60003681B6B98470028D9D0236820005B6BD9
:102FE60098470028D3D0236820005B6B9847236856
:102FF60006001B6B200098470123009A3860137067
:10300600C6E702F08AF93200019907F05AFB002858
:0E301600BDD00123009A386009261370B8E778
:0C30240010B502F07BF907F09FFA10BD18
:1030300010B582684368006851104018D20701D566
:083040000268D358984710BD47
:0E304800C36810B5002B01D09B68984710BDDF
:10305800F0B5040089B002F05FF923000026293397
:103068001978174B04AD174F402205930095032399
:1030780004940797069607F0A3FA2800FFF7E0FFE5
:1030880002F04AF923002A33039319780E4BEF60B4
:1030980040220593009503230494069607F090FABE
:1030A8002800FFF7CDFF2200039BBC3219782000CF
:1030B800402302F074F901204834267009B0F0BDAD
:0C30C800092F0010741A02103D2F001098
:1030D400F8B51E0000230125040083600E4B4571E2
:1030E400083303602C30170006F0C3FC2000343092
:1030F40006F0BFFC2000403006F0BBFC23003C334C
:103104001D701D73C0331F705E7002F007F921003B
:0C31140002F0BEF82000F8BD101B0210F5
:1031200070B504008CB00D0002F020F9684606F07E
:103130004DFB200000260D4B69460A9534300BAD3F
:10314000009309942E7006F0BAFC200002F015F9E5
:10315000074B31001A68684606F08EFB2C786846EB
:10316000FFF768FE20000CB070BDC046641A021064
:04317000801A0210AF
:10317400F8B504000F0002F0F7F8FFF751FF051E41
:1031840004D1200002F0F7F82800F8BD26003C36F0
:103194003578002DF5D020004422390074300DF02C
:1031A400DFFA23002200293319787832636F200074
:0A31B40002F00BF900233370E3E78B
:1031BE0010B50400FFF72FFF002803D12C34207028
:1031CE00013010BDA16A606AFFF7CDFF0028F8D06C
:0831DE0001232C342370F4E7F7
:0631E60016204042704774
:0A31EC000020814200D1193870471D
:0431F60001207047FD
:0631FA0016204042704760
:0632000016204042704759
:0432060011207047DC
:02320A0070470B
:02320C00704709
:02320E00704707
:0432100000207047E3
:0C32140010B50368C9B21B68984710BDD4
:0E3220008B23002249009B00C161C250704701
:0C322E0010B5036801211B6B984710BD10
:0C323A0010B503689C6B0123A04710BD79
:1032460030B58B248025A400025903006D000020B0
:10325600AA4206D0501C185101209B182D33FF336B
:04326600197030BDEE
:06326A00FC30C06A704751
:023270007047A5
:083272008C239B00C150704742
:08327A008D239B00C150704739
:103282000300FC33DA6A002A0DD0DA6A002A0CD075
:103292009A6A996A01300131C9B28018C27F996273
:1032A200D96A0139D9621000704701225242FAE705
:1032B2000300FC33DA6A002A04D09B6A0130C0188A
:0A32C200C07F704701204042FBE787
:1032CC00054B10B5083303608E2304009B00C01817
:0C32DC0009F0BCFD200010BD981B021082
:1032E80070B5036804005B6A9847402009F018FA33
:1032F80005001A23E25E1823E15E05F09FFC656174
:0233080070BD96
:10330C007FB5036804005B6A0E0098470C2009F037
:10331C0005FA05001A23E25E1823E15E05F0B8FCFD
:10332C0071002800256105F0D1FC0A4B6946039316
:10333C00094B00940193002302938E239B00E01809
:10334C0009F0ECFC039B002B02D09B686846984765
:0C335C007FBDC046801B0210953400109D
:1033680070B58B25AD00435906001400D018802293
:103378005200904200D9D41A30002D30FF30C018C6
:1033880022000DF0EBF9735920001B19735170BD21
:1033980070B5050040690C00002801D005F07CFBE1
:0E33A8002869002802D0210005F08EFC70BDBF
:1033B60070B504004069002802D00368DB689847AE
:1033C6002369002B0CD08E239B00E518280009F0FA
:1033D6001EFD280009F069FD0C21206909F0D1F9CC
:0233E60070BDB8
:1033E8008B2330B502000C0001259B00C35885B023
:1033F8004069D1696C40002B07D100942B0003AAC7
:1034080005F078FBC0B205B030BD2D32FF32009414
:0C34180005F052FB431E98414000F4E711
:10342400F0B515000122C3B05340009302AE04006E
:1034340049002B003200406905F05EFB002817D1DB
:103444002300FF27FC330134A84212D08021DA6A1A
:1034540049008A420AD05A6A315CA218D1775A6A62
:1034640001323A405A62DA6A0132DA620130EBE739
:083474000025280043B0F0BD63
:10347C0010B582684368006851104018D20701D516
:08348C000268D358984710BDF7
:10349400F0B580270500BDB07F00286905F023FC46
:1034A4000328FAD8FCF7DEFF470219198D239B0085
:1034B400EB58002B00D098478B24A4002A59002AEB
:1034C40007D029002D31FF31286905F014FC0023B1
:1034D4002B51286905F017FCDFE72C000026FC348B
:1034E4006662A662E662F0226946286905F0FFFB7F
:1034F4006A1C864214DAE36ABB4211D0E36ABB4217
:103504000CD06946636A895DD318D977FF21636A51
:1035140001330B406362E36A0133E3620136E8E797
:10352400E36A002BB9DD8C239B00EB58002BB4D04D
:0C353400E06A9847B1E703F01BF8AEE72F
:10354000FA2373B500254283802204009B00836028
:103550001A4B4560083305614561036001835200E1
:10356000290020300DF090F92300FC335D629D624C
:10357000DD628B239B00E5500433E550104A043391
:10358000E5500433E2500433E318DD608E239B00E2
:10359000E61840332900E01809F01CFBA3239B0028
:1035A000E01809F0B3FA8022064B300000931201B4
:1035B0002B00182109F0AEFB200076BD981B0210ED
:0835C000BC3E02108C1B02103E
:1035C80070B5042002F09CFF0500052002F098FF6A
:1035D800054C290002002000FFF7AEFF034A04490A
:1035E800200008F083FE70BD5497002040020020A0
:0435F800CD320010C0
:0235FC00704716
:1035FE00F0B51D0089B00EAB00241C5F0FAB1B880D
:10360E0016000693A31ADA179B18534002936B1AEF
:10361E00DA179B1853400393039A029B019093422F
:10362E0005DC23002C001D0033000E001900A642FD
:10363E0005DC2B000D001900230034001E00331B87
:10364E009BB204934B1BDA179B18534007936B46A0
:10365E0010229A5ED30F9B185B10009301238D42AC
:10366E0021DA0593B44224DC019B039A1B689B6903
:10367E001F00029B934218DD22002900069B019831
:10368E00B847009B079A9B1A9BB21AB20092002A67
:10369E0006DA059AAD18049A2DB2D3181BB2009310
:1036AE00013424B2DEE75B42DBE7069B2A002100F1
:0636BE00E5E709B0F0BDD4
:0236C40070474D
:0A36C60010B504682469A04710BD88
:1036D00037B506AC258804680095A46BA04737BDB4
:1036E00037B506AC258804680095E46BA04737BD64
:1036F00073B506AC0025655F07AC268804680196A3
:083700000095246CA04773BD85
:10370800F0B5160004000D0085B003930AAB1F88BE
:1037180003685B699847039B2268013B9B191BB2AE
:1037280000930197976A2B00320029002000B847C0
:0C37380023682000DB6A984705B0F0BD54
:10374400F0B505001C000E00170085B00AAB1B88FD
:10375400013C03930368A4195B69984703992A6899
:103764000191009723B23100946A28003A00A047DF
:0C3774002B682800DB6A984705B0F0BD08
:10378000F0B50E0087B003930CAB029200229B5E53
:10379000050004930DAB1B883400059303685B6937
:1037A0009847039A2B68B21894420ADA059A2100C6
:1037B00000921F6A029A049B28000134B84724B281
:0C37C000EFE7DB6A2800984707B0F0BD77
:1037CC0013B501910E24015F0C22835E02680091F7
:0A37DC00146C00221100A04713BD79
:1037E600F0B5040015000E0087B004930CAB002260
:1037F6009B5E05930DAB1B88039303685B69984733
:10380600039A236800925F6A2A00049B3100200015
:10381600B847059B03995A1E2368009152195F6A9F
:103826003100049B200012B2B847039A2368009225
:103836001F6A2A00059B31002000B8470499039AA5
:10384600236801390092891909B21F6A2A00059B6B
:103856002000B84723682000DB6A984707B0F0BD10
:023866007047A9
:10386800F0B585B01E000AAB0027DF5F0BAB1B88E5
:1038780014000500029103930268B14210D1BC42C2
:1038880002DC3B0027001C00039901340091E31B74
:10389800966B1BB23A0002992800B04705B0F0BDFC
:1038A800BC4211D1029BB34202DC3300029E029358
:1038B800029B0399013300919B1BD76B1BB222001B
:1038C80031002800B847E9E753699847039A2B68FD
:1038D800019200979F6A2800330022000299B84796
:0A38E8002B682800DB6A9847D8E738
:1038F2000323194010B50822835E81760A24025FF1
:10390200012904D0032902D08381C28110BD8281A2
:04391200C381FBE78B
:103918004281C2810122524242610222002310B533
:10392800FF32074C0283013A0834FF3A43600460CF
:103938000181818103618376C2760377036210BDBA
:04394800F020021059
:10394C00F0B58DB0089312AB039200229B5E0791E9
:10395C00049313AB00229B5E0400099314AB1B88E9
:10396C000A9303685B6998470722049B039FD91D40
:10397C00CB1713405B18DB10059300231D0001933C
:10398C000B92039ABBB206939B1A099A1BB29A42EA
:10399C002BDD0023049A93421EDA9AB202920B9A00
:1039AC006D0099B2EDB2114204D1089A0199DB1065
:1039BC005218D55C6BB2002B0ADA079B029A2000D6
:1039CC00D118236809B29B693A001E000A9BB047C4
:1039DC00029E013633B2DDE7059A019B9446069FA1
:1039EC006344013701933FB2CBE723682000DB6AC5
:0639FC0098470DB0F0BD7C
:103A0400F0B595B01D001AAB1B88040005931BABE1
:103A14001E881CAB1B78089103931DAB1B78049282
:103A24000293036A002B00D0C4E00C22835E8B4215
:103A340000DC7DE00E22835E049A934278DD062347
:103A4400039A53435B18002B72DD029B049ADB003C
:103A54009B18002B6CDD037F002B03D1AF2D01D904
:103A64000135EDB2236820005B69984705235D4367
:103A74000B9300230793984B5B190F93079A0F9BA3
:103A84009B5C0A936B469B8B09936B469B890D93B6
:103A94006B460D9A1F8C099B5343FB181BB20E9364
:103AA40008230C930023069301220A9B20681342E7
:103AB40052D06B461A8B198A039B012B3AD1029B75
:103AC400012B37D1099B52188569D919059B12B26C
:103AD40009B22000A847069B01335BB206930A9BF8
:103AE4005B080A930C9B013BDBB20C93002BDBD1EC
:103AF400079B01335BB207930B9B013BDBB20B9338
:103B0400002BBBD1059BB3420ED0039B2268012B33
:103B14003FD1029B012B3CD105370096156A39B27F
:103B24000733049A2000A84723682000DB6A9847DB
:103B340015B0F0BD6B460C255B5F029D6A438A1885
:103B4400059912B2019169460825495F0091C5693A
:103B54000E992000A847BEE7059BB342BBD06B4635
:103B6400198B1A8A039B012B0AD1029B012B07D1C3
:103B7400099B5218D91912B209B285693300A8E712
:103B84006B460C255B5F029D01966943521812B285
:103B9400D9E76B460C215B5E05210D9801964143E4
:103BA40002987918C0000090D56909B2049A2000DF
:103BB400A847B9E71A7AAD1AEDB25A68ED001B6846
:103BC400551913932B880993AB780D93EB781193C4
:103BD4000523EB560E930623EB560F93039B012B01
:103BE40002D8029B012B56D96B4638229B5E0B935D
:103BF4006B463C229B5E0C930027236820005B6984
:103C0400984707970697119B069A9A4200D38BE729
:103C14006B461B8A00260A930C9B9B18029A5343FB
:103C24000A9AD3181BB210933B000D9A96424BD2BA
:103C34005A1CD2B212920722134207D1099B099946
:103C4400139A0133525C9BB2079209936B461B7F14
:103C54005BB2002B17DA6B46198C039B2068012B8F
:103C64001DD1029B012B1AD10A9B0F9A9A18069B0D
:103C7400D2180E9B12B2C918836989191D0009B2A2
:103C8400059B2000A847079B01365B00DBB2079326
:103C9400F6B2129BC9E700230C930B93ACE76B4677
:103CA4000C229B5E0B9A039D92196A438918059A0C
:103CB40009B201926A460825525F0092C269200047
:103CC4001500109AA847DEE7069D0D9B0135FF18E5
:0C3CD400EBB2FFB2069396E7F01B021063
:103CE000F0B5026A85B004000B00002A34D10A291D
:103CF00008D1437E0282DB00628A9B186382012026
:103D000005B0F0BD0D29FAD0E17E007E657E002968
:103D10000ED01026A15F0626464389190C27E65FC0
:103D2000B14205DD1226A15F2282EA0052186282AA
:103D30000290E08A1221625E0190A08A1026A15FA3
:103D4000009003952000FFF75DFE0622237E53437B
:103D5000228A9B182382D2E70A2905D100230382F5
:103D6000127B437E5343C7E70D29C8D0117A8B429B
:103D7000C5D3907A9842C2D3591AC9B25068C900C3
:103D80004518AF78002F28D0E978002925D0E17EAA
:103D9000207E667E002913D005216956C91941434A
:103DA0008C461021675EBC440C21675EBC4507DD74
:103DB0001227E15F00272782127B7243521862822A
:103DC0000290E08A1221625E0190A08A1027E15FD2
:103DD000009003962000FFF715FE2B79227EB6E7B0
:103DE0000B000F2130B50122172487B069440B70F6
:103DF000C3686C44186803680092DD682300A84714
:063E0000207807B030BD80
:103E0600F8B5427A036805000C00CFB29B680E0A2B
:103E1600002A0FD13900FF2798472B68BC4304437B
:103E26009B68310028009847030220003840184359
:103E360080B2F8BD31009847FF262B680002344057
:103E460004439B68390028009847B4432043EFE7B2
:103E560013B5C368186803680092DC680B00A047B6
:023E660013BD8A
:023E68007047A1
:023E6A0070479F
:103E6C00C36810B51868002802D003685B689847CF
:023E7C0010BD77
:023E7E0070478B
:103E800037B5436804000D0000910192994204D1B6
:103E90006B469A8803899A4210D06B461A79E36878
:103EA0000821186804F0D1FFE3682900186804F0BD
:0E3EB000E8FF201D062269460CF054FC37BDC9
:0E3EBE0010B50400182108F060FC200010BDB3
:103ECC0037B5C5680400002D04D1042008F026FC89
:103EDC00E0600560E3681B68002B11D1302008F00E
:103EEC001DFC1422A35E05001021625E1220215ECF
:103EFC00012040420090280004F066FFE3681D603A
:023F0C0037BDBF
:103F100070B5102002F0F8FA0500132002F0F4FA50
:103F20000400122002F0F0FA094A0A4B08321A6023
:103F30000121002259725A601A72DA609882064A88
:103F4000064918001D825C8208F0D4F970BDC04695
:103F5000482102103C970020400200207F3E0010C4
:103F6000F0B500291BDB0C25445F8C4217DD002ACD
:103F700015DB0E25445F944211DD847E022C0FD0A8
:103F8000032C16D0012C04D1D2430489A4180A00B2
:103F900021B2012B13D0002B22D0022B32D0F0BD46
:103FA000CC4301890919D443428909B2121912B2CA
:103FB000EFE7C94344896418110022B2E9E70725F5
:103FC000D4172C40A4182A4093400827C65FE41059
:103FD00074436118C46A61180A7813430B70DEE7F2
:103FE0000724D31723409B180826855FDB106B43FB
:103FF0005918C36A22405918012393401A000B78BC
:104000009343EBE70724D31723400826855F9B18CB
:10401000DB106B435918C36A012022409040020014
:0A40200059180B785A400A70B9E7EE
:10402C0070B5002504001E0012B204AB09B25D5736
:10403C00FFF76CFC104B08332360002363629E4235
:10404C0000D10E4E2100FF223331A662E3620A70CA
:10405C004A708A70CA70220037321570059A200097
:10406C00A263069AE263064A626422004432137128
:10407C000123537170BDC0462426021054970020B2
:04408C0000093D00EA
:10409000054B10B5083304000360C06A002801D046
:0C40A0000CF030F8200010BD24260210A7
:1040AC00836AF7B504000E000200002B14D03032E6
:1040BC0011781A681800D26A9047A06A0021036828
:1040CC001B689847A06A310003681B689847A06A70
:1040DC0003685B6B9847F7BD35321078190002F016
:1040EC00D1FA606A002804D0036831009B689847B5
:1040FC00F1E7082780252300290033331878314055
:10410C0002F0C0FA2300343301931878012102F035
:10411C00B9FA019B00211878013F02F0B3FA6D083F
:06412C00002FE8D1D7E7E7
:1041320070B50400806A0D00002812D00368A16BDC
:104142009B6A984729004D1EA9412000A631FFF71E
:10415200ACFFA06A002813D00368E16B9B6A984702
:1041620070BD606A002804D00368616CDB69A26CD0
:104172009847230036331878002102F088FAE1E7E5
:10418200230036331878012102F081FA606A002890
:0A419200E6D003681B6A9847E2E7D5
:10419C00F0B5836A85B08A1805000C000392002BD9
:1041AC002DD007001A68303718003978D26A90473A
:1041BC00A86A0021036801261B689847A86A039A1D
:1041CC000368A24217D03E2E0CD95B6B9847A86AA5
:1041DC00397803680126DB6A9847A86A00210368CE
:1041EC001B689847A86A2178036801361B689847B2
:1041FC00B6B20134E2E75B6B984705B0F0BD020044
:10420C0035321078190002F03DFA039B9C42F4D031
:10421C002378686A0193002805D0036801999B688C
:10422C0098470134F1E7082680272B000199333396
:10423C003940187802F026FA2B00343302931878A0
:10424C00012102F01FFA029B00211878013E02F0B6
:0A425C0019FA7F08002EE8D1E3E70D
:10426600072110B50A22835E0733DA170A40D218EF
:104276000821435ED2105A43C06A00210CF001FBAC
:0242860010BD69
:10428800F0B587B004930CAB1F78C36A040005919E
:104298001600002B1BD02000FFF7E1FF0A23E25E87
:1042A8000823E15E202A25DC203AD30F9A180B0058
:1042B800733BD90FC918012302931F3352104910B9
:1042C80001935333009312B209B2934B24E00A22AC
:1042D800835E07220733D8171040C0180822A35E50
:1042E800C01058430BF000FFE062031ED3D1180042
:1042F80007B0F0BD403AD30F9A180B00523BD90FC4
:10430800C918012302933F33019312335210491005
:104318000093824B12B209B22000FFF713FB6B46E1
:1043280025001B7D31352B70A06A002800D197E04D
:10433800002E00D092E00A23E65E203E731E9E41C6
:104348003C36230030331E70002F00D1DEE00368B6
:10435800DB699847049B002B1BD0260000203736CA
:104368003056002815DBC0B2012102F053F90121B3
:10437800307802F089F9012002F0E8F8002130785D
:1043880002F082F90A2002F0E1F83078012102F007
:104398007BF9A06A002800D18DE00368A16B9B6AB5
:1043A800984704225E492000FFF7F4FE6189200047
:1043B8000139C9B2FFF776FE5A4904222000FFF7F7
:1043C800E9FE0023EB561421012B00D1043920000B
:1043D800FFF768FE2600042253492000FFF7DAFEA3
:1043E8008F2340363370A368504A022793420AD07D
:1043F8004F4A93426ED10022AA56CF23012A00D1F8
:10440800303B12273370DA212000FFF74BFE3900CA
:104418002000FFF747FE81212000FFF743FE317897
:104428002000FFF73FFED9212000FFF73BFE0023C5
:10443800EB56F121012B00D1CF392000FFF732FED6
:10444800200006223B49FFF7A5FEA06A00284ED0AF
:104458000368E16B9B6A9847012348E776B270E7E7
:1044680023002600353318783636012102F0D2F8B9
:104478003078012102F0CEF83078012102F004F9F9
:10448800666A002E06D0002F00D163E7336830003B
:10449800DB6A5EE7230027003333187834370121BD
:1044A80002F0B8F83878012102F0B4F83878310011
:1044B80002F0EAF84EE7606A002804D00368616CED
:1044C800DB69A26C9847230036331878002102F084
:1044D800DBF866E7184A0227934294D10022AA56CD
:1044E800AF23012A00D19F3B337002278BE72300BB
:1044F80036331878012102F0C7F8606A01230028D2
:1045080000D1F4E603681B6A9847A5E7049B002BD3
:1045180000D022E741E7C04644240210842102105B
:104528008C2602109026021094260210800020008B
:0C45380080004000982602106000100077
:10454400F0B5140005AA1688002C41DB0A25425F49
:10455400A2423DDD002902DA5B1800211BB20822C9
:10456400855E5A18AA4201DD6B1A1BB2002B2FDD9F
:104574000727E2173A401219D2105543C26A0120A4
:104584003C40A04069185218C0B2012E0CD0002E35
:1045940013D0022E1CD1013B1BB2591C18D0117828
:1045A400414011700132F6E7013B1BB2591C0FD098
:1045B4001178014311700132F6E7C043C0B2013BE8
:1045C4001BB2591C04D01178014011700132F6E776
:0245D400F0BD38
:1045D800F0B505AC2588002976DB0824065FB142D2
:1045E80072DA002A02DA9B1800221BB20A27C45F7B
:1045F800D718A74201DDA31A1BB2002B64DDD2B283
:10460800DCB2D30873435918C36A591807231A40F0
:104618001FD001339A1A314BD2B29B5C944254D2C8
:10462800FF26171B3E413340012D06D0002D08D030
:10463800022D49D10E78734001E00E7833430B7098
:1046480002E00E789E430E7094423DD30826835FA5
:10465800C918A31ADBB2072B22D9022D10D11A00D0
:104668000C78083AE4430C700825445FD2B2091963
:10467800072AF5D80722134026D0194AD35C19E037
:104688002C00621E94411A006442E4B20C700827A0
:10469800C65F083AD2B28919072AF7D80722134009
:1046A800002B11D00E4AD35C012D06D0002D08D066
:1046B800022D09D10A78534001E00A7813430B70A0
:1046C80002E00A789A430A70F0BD012DB5D0002D9A
:1046D800B7D0022DAED08919BBE7C0467C260210A0
:0446E8008426021012
:1046EC0037B5140006AA1588827E022A0DD0032A3B
:1046FC0018D0012A11D1E2430489A41824B20A006B
:10470C0000952100FFF762FF0BE0E2434489C918D2
:10471C00A418028924B2511A09B200952200FFF79D
:0E472C000BFF37BD4289C918511A09B2E7E7E1
:10473A0037B5140006AA1588827E022A0DD0032AEC
:10474A0018D0012A11D10289E418141B24B20A00D4
:10475A0000952100FFF7F1FE0BE0CA430189E41836
:10476A008918428909B2141B24B200952200FFF766
:0E477A002EFF37BDCA434189891809B2E7E70F
:10478800F0B50400806A85B000284DD00368A16B9D
:104798009B6A9847052251492000FFF7FBFC2189B5
:1047A80020000139C9B2FFF77DFC07210A23E25E28
:1047B800A06A0732D3170B409B182289DB1053439A
:1047C8009BB20193E66A002848D027000368303777
:1047D8003978DB6A9847A06A4021036801251B687D
:1047E8009847019BA06A013B9BB20193019A036819
:1047F80011003B4A914226D03E2D0CD95B6B98475D
:10480800A06A397803680125DB6A9847A06A4021C5
:1048180003681B689847A06A3178036801351B68EC
:104828009847ADB20136DCE7606A002804D0036817
:10483800616CDB69A26C9847230036331878002135
:1048480001F022FFA6E75B6B9847A06A002838D0E2
:104858000368E16B9B6A984705B0F0BD23003533C8
:104868001878012101F010FF019B013B9BB20193D5
:104878001A001B4B9A42E8D03378606A02930028EA
:1048880005D0036802999B6898470136ECE708252C
:1048980080272300029933333940187801F0F4FE59
:1048A8002300343303931878012101F0EDFE039BB4
:1048B80000211878013D01F0E7FE7F08002DE8D1BE
:1048C800E3E7230036331878012101F0DDFE606A42
:1048D8000028C1D003681B6A9847BDE79E260210CE
:0448E800FFFF0000CE
:1048EC0070B5104C10492068104A114B88420FD1FA
:1048FC00606890420CD1A068984209D100250D48FF
:10490C00256009F0D1FF030080202900800498471E
:10491C00216009480021A360626009F029FE002390
:10492C00236070BDC4110020DE8116F0299B72BD7E
:0C493C007ABE59D355420000A08601004D
:104948000B00F0B50F2700260E33023902003A405B
:10495800D5B22C0000093034092A00DD07341C7058
:0A4968005E70023B9942F1D1F0BDF0
:044972001E2070474C
:02497600704788
:1049780013B50400684609F067F821000098FFF7AE
:10498800DFFF210001981031FFF7DAFF202016BD64
:1049980010B5192001F0B4FD0400044809F086FFA1
:1049A800030001200021A0409847C046554200005E
:1049B8009C2370B55B00C35C05001400002B1CD160
:1049C8000368DB699847F0210C4B09012140C9189D
:1049D8004B1E9941F0232340303B5A4253410F224A
:1049E8000731144001330D3A012C02D0023C6242D7
:1049F8006241A869006804F0D2FB70BD00FDFFFFAA
:104A08009C2310B55B00C35C0400002B05D1A3698F
:0C4A1800186804F0F4FB0028F9D010BD71
:104A24009C2370B55B00C55C0400002D14D1836920
:104A3400002B0CD01868002809D00368DB6898475D
:104A4400A36904211D60A06907F09CFEA5610023F1
:0A4A5400FC34E3622363636370BD6A
:104A5E009C23F7B55B00C35C0400002B2AD1802594
:104A6E00FF276D00A369186804F0AAFB002821D067
:104A7E0007F0CFF9A369012218686B46DE1D0368A3
:104A8E0031005B6998472300FC335A6BAA420ED063
:104A9E005A6BAA420BD02200D96A30782832505471
:104AAE00DA6A01323A40DA625A6B01325A6307F01F
:064ABE00C6F9D7E7F7BDC1
:104AC4007FB59C235B00C35C04000D00002B37D131
:104AD4008669002E04D1042007F024FEA06106603C
:104AE400A369186800282CD1783007F01BFE060053
:104AF4002223E25E2023E15E2B0004F01BFEA36967
:104B04001E602423E25E531C06D0A0692621635E46
:104B14000068032104F01CFEA369186800280FD064
:104B240000220A4B69460393094B009401930292B5
:104B340004F082FB039B002B02D09B6868469847D5
:104B44007FBD290004F01CFBDBE7C046A42602104D
:044B54005F4A0010A4
:104B580010B582684368006851104018D20701D523
:084B68000268D358984710BD04
:104B70009C2210B552000300805C002806D0012062
:104B800001F0E8FC054801F017FB10BD9B69002B04
:104B9000FBD01868431E9841C0B2F6E7489A00203F
:104BA00070B504000D0001F007FB030000208342F4
:104BB00004D0236829001B6C2000984770BD08B4FE
:104BC000024B9C46024BC01A08BC6047A14B001028
:044BD00040010000A0
:104BD40037B56B46DC1D9C2321705B00C35C05006C
:104BE400002B04D0C9B20A48FFF7D8FF3EBDAB6919
:104BF400186804F006FB0028F9D0AB690122186894
:104C0400210003681B6998470130431E9841EDE772
:044C1400489A00209A
:104C1800F7B5060001911700002401F0C9FAA04277
:104C28000DD0A7420BD93D1B402D00D94025019B33
:104C38002A001919300000F037FF6419F1E7200045
:104C4800FEBD08B4024B9C46024BC01A08BC604724
:084C5800194C0010400100009E
:104C60009C2370B55B00C35C05000E001400002B94
:104C700005D00F48FFF7D0FF0400200070BDAB69DE
:104C8000186804F0C0FA0028F9D0AB6901211B684C
:104C900018005B6F74301B6B9847AB692200186873
:104CA000310003681B699847431CE6D10024E4E700
:044CB000489A0020FE
:104CB400F0B5C3B0050001F0E5F9932380229B0011
:104CC400E918CB6852000400D31A984201DDCC687D
:104CD400141B01AB220002A92800A82600F0E3FF60
:104CE4000021019802AB241A76001C199323802218
:104CF4009B00EB18DF685200974211D081420FD01D
:104D0400DF6897420AD05A68675CAA1897555A68B0
:104D14000132D2B25A60DA680132DA600131E5E771
:044D240043B0F0BDEB
:104D280070B5040000F01EFB2000FFF7BFFF9323BF
:104D38009B00E318DD68200000F01BFB280070BD15
:104D480008B4034B9C46034BC01A08BC6047C046D6
:084D5800294D0010400100008C
:104D60009C2310B55B00C35C0400002B05D00648F3
:104D7000FFF7DAFF0400200010BDFC3407F050F804
:0C4D8000646B07F063F8F6E7489A002027
:104D8C0070B5040000F0ECFA2000FFF78DFF9323C0
:104D9C009B00E318DA68002A09D0A8229B6852000D
:104DAC00E3189D5C200000F0E2FA280070BD01259C
:104DBC006D42F7E708B4034B9C46034BC01A08BC82
:0C4DCC006047C0468D4D00104001000003
:104DD8009C2310B55B00C35C0400002B05D00B4876
:104DE800FFF7D0FF0400200010BD07F015F82300DE
:104DF800FC335A6B002A05D01B6B2834E45C07F09F
:104E080021F8F0E701246442F9E7C046489A0020F7
:104E180070B5040000F0A6FA2000FFF747FF9323BF
:104E28009B00E318DA68002A10D0A8219A68490084
:104E3800A218555C9A680132D2B29A60DA68013ACF
:104E4800DA60200000F095FA280070BD01256D4257
:104E5800F7E708B4024B9C46024BC01A08BC6047EF
:084E6800194E0010400100008A
:104E70009C2310B55B00C35C0400002B05D00E48DA
:104E8000FFF7CAFF0400200010BD06F0C9FF230091
:104E9000FC335A6B002A0CD01A6B2834A45C1A6BB2
:104EA0000132D2B21A635A6B013A5A6306F0CEFF4E
:0C4EB000E9E701246442F9E7489A002079
:104EBC00802210B50400520000210BF0DFFC23000F
:0E4ECC000022FC335A6020009A60DA6010BDAC
:104EDC00F7B51A4B1A4DFA260024083300932B60B1
:104EEC002023B600AE606C6016486B61AC61EC615F
:104EFC00FFF7DEFF9C22012752002000AF5401F087
:104F0C00FDFA0190380001F0F9FA20230E4D0099BA
:104F1C006B616B469B88AE602B84012368845B427B
:104F2C006C600A482960AC61EC61AB84EB84FFF7E0
:104F3C00BFFF9C225200AC54F7BDC046B0260210F5
:104F4C003C9E0020649E0020009D0020289D002097
:044F5C00002070477A
:024F6000704798
:024F6200704796
:104F640010B5054BC458002C05D0236820005B689D
:0C4F74009847A468F7E710BD8C0500000A
:104F800070B50D00054BC458002C06D023682000D6
:104F90009B6829009847A468F6E770BD8C0500005F
:084FA000004870478027021051
:104FA80010B50400044B036005F0F8FF200006F07C
:0C4FB8000FF8200010BDC04600270210BA
:104FC40010B50400FFF7EEFFB2212000C90007F07E
:064FD400D9FB200010BD16
:104FDC00F0B50F4B0500C458002385B0019102AA0F
:104FEC00D61C002C12D023680199DF68320003AB69
:104FFC002000B84731780300042905D0039A280013
:10500C0005F06EF905B0F0BDA468E8E73178F5E776
:04501C008C050000FF
:1050200070B50E0005000021002A0CD10A4BC458AF
:10503000002C0ED0236800221B6931002000984705
:10504000002804D00121280004F010FF70BDA468DE
:0C505000EEE72100F7E7C0468C050000E9
:10505C0070B50E0005000021074BC458002C07D07A
:10506C002368310020005B699847A4680100F5E7CC
:0C507C00280005F005F870BD8C05000050
:10508800F8B505000E001700084BC458002C07D0CF
:10509800236820009B693A0031009847A468F5E727
:1050A8002800012105F05CF8F8BDC0468C05000019
:1050B800F0B5002187B0040005F092FB6B46002292
:1050C800DA80238901A9A588E28889260B731B0A3F
:1050D8004B730F4BEF27CB81042376000E80113ED4
:1050E800FF3ECE704E710D728A72FF330A34013E54
:1050F8002D0A120AC871CA720F718E714D720B8215
:10510800122220000BF02AFB200007B0F0BDC04699
:045118000102000090
:10511C00F8B506000C000500002730000BF0A2FECD
:10512C00AB1B984205D92B7867702370013502347C
:08513C00F3E74000C0B2F8BD2A
:1051440070B504000C4BC558002D07D02B682800FF
:105154001B6A9847002802D1AD68F5E72800A92505
:10516400064BED006353064BE118FFF7D5FF635D73
:10517400C0186055601970BD8C0500000203000062
:045184004A050000D8
:1051880070B5A125064BED004353064B0400C1182A
:105198000548FFF7BFFF635DC0186055601970BD13
:0C51A800020300000A050000E4260210CB
:1051B40070B59925064BED004353064B0400C01807
:1051C400FFF7D8FB635DC0186055601970BDC04619
:0851D40002030000CA04000000
:1051DC000023F0B587B003A98B71B123DB00C35C4E
:1051EC0005000B7101234B71BF33CB713A330B723A
:1051FC00CE2309249B00154AC718039238000922B4
:10520C000BF0AAFA124BEE58002E17D0336800217F
:10521C001B6830009847C37882781B021343093B04
:10522C000193CE2301009B00E01828180931019A44
:10523C000BF092FA019BB668E418E5E73800054BD1
:10524C00EC54054B2412EC5407B0F0BD0902FFFFDF
:0C525C008C0500003A0300003B0300003A
:1052680073B504000D00160008F0BAF880235B003F
:10527800010000932A003300200005F06BFA024B6E
:0C5288002000236076BDC0460027021005
:1052940010B50E4A04008358002B12D18150B1235B
:1052A400DB00E25C48790A71E25C1218E2540B6894
:1052B40008005B6A9847238918182081012010BDD3
:1052C40013009A68002AFBD19960E8E78C05000076
:1052D4001FB5040005F038FA0100684604F004FB29
:1052E4004021684604F081FB074BE458002C06D0AB
:1052F40023682000DB6969469847A468F6E7684696
:0C53040004F0F9FA1FBDC0468C05000043
:1053100010B50400FFF7DEFF200005F039F910BDDD
:1053200070B50D4D2B78BFF35B8F0C4CDB0711D4A0
:10533000280006F0F3FF00280CD0C0220849200006
:10534000FFF792FF280007F00BF8064A06492000F5
:1053500006F0D0FF200070BD7C9F002084A20020BA
:0C5360008A2E000040020020A94F00101F
:0E536C0010B5FFF7D7FF03685B6F984710BDC1
:0E537A0010B5FFF7D0FF03689B6F984710BD7A
:0E53880010B5FFF7C9FF0368DB6F984710BD33
:1053960010B50C00FFF7C1FF210005F03EFA10BD65
:1053A60070B515001E000C00FFF7B7FF33002A008A
:0853B600210005F06EFB70BD43
:1053BE0010B50C00FFF7ADFF210005F0C8FB10BDC6
:1053CE0070B515001E000C00FFF7A3FF33002A0076
:0853DE00210005F0FEFB70BD8B
:1053E60010B50C00FFF799FF210005F062FC10BD17
:0853F60010B504F036FC10BDF7
:0853FE0010B504F0E8FB10BD3E
:0854060010B504F01CFC10BD00
:02540E007047E5
:025410007047E3
:025412007047E1
:08541400436A783318787047F1
:06541C00FC30806A7047BD
:0454220001207047AE
:0854280000487047E82802105B
:10543000F0B505009BB007AC4B220F002000002107
:105440000BF022FA2B00FC339B6A05215A1E934174
:1054500000202E795B421940731CDBB20193AB7BB9
:1054600002932B7B03936B7B0493874200D0A5E0D0
:105470006176534906A86183102161770B39E17782
:105480002421471D0922F9772527627406A8053AC9
:10549000C019A274033A027006A8C71D0320494B25
:1054A000F8772380BF3BFF3BA370812308AFFA77D7
:1054B00004275B00A380823BE37162754E3B22763A
:1054C000A27706A80832121823722A3BD777637294
:1054D0000A220333A3723C4B06A8A38102231218AD
:1054E000D1770591073706A97F18FB770627052195
:1054F00009A8C77711A801702D2006A940182421FA
:10550000E672A373E674A375E37501702E2006A9F5
:10551000401807702F204018694606700E7912A8AF
:1055200006703126072006A97618307032267618C4
:1055300005213170332606A9761869460F7A06A927
:105540003770224E1027268637267618377009279F
:1055500014AE377039260427761837703A26761835
:1055600069460F7906A93770194E1D3526874126E1
:10557000761830703B30401805210170432106A891
:10558000091868464426007B0870124906A880194D
:10559000018011492800D1874A2206A9521869467C
:1055A000097C11704B2206A952181370402219ABC6
:1055B0001A7021000B320BF0D5F828001BB0F0BD9B
:1055C0000524000009020000020200000340000060
:0C55D000020A0000024000000705000075
:1055DC0010B504000A4B08330360FFF79BFE05F07F
:1055EC00DBFC2000D03004F095FA20007C3004F075
:1055FC0091FA2000703004F08DFA200010BDC046E6
:04560C00A0280210C0
:1056100010B50400FFF7E2FF94212000490007F0D5
:06562000B3F8200010BDEC
:0856260010B5FFF7AEFE10BD48
:1056300010B50400024B036004F0D4F8200010BD44
:04564000C827021065
:1056440010B50400FFF7F2FF2000282107F09AF8B4
:04565400200010BD65
:1056580010B50400024B036004F0C0F8200010BD30
:04566800982702106D
:10566C0010B50400FFF7F2FF2000342107F086F894
:04567C00200010BD3D
:1056800010B50400024B036004F0ACF8200010BD1C
:04569000B02702102D
:1056940010B50400FFF7F2FF2000382107F072F87C
:0456A400200010BD15
:1056A80070B50D000400072217490F300BF056F8AB
:1056B80040220221280004F088F9402220730221A8
:1056C800280004F089F9402260730321280004F0BF
:1056D8007CF9A073280004F00DF9002804D1AF224A
:1056E8000A490B4806F0EAFA220021000023783222
:1056F80085311165536513701373D934503213749F
:105708005465936570BDC046E427021081280210D5
:045718008C280210C7
:10571C00F0B504000E0087B01500FFF72FFEF288DD
:10572C0023799A4236D1002D34D173780593012B0D
:10573C002DD1F378202B26D13789072F23D12300A5
:10574C000F33039307333A001900039804930AF0BC
:10575C00DDFF059D002816D03A00049903980AF045
:10576C00FBFF217CE07B09020918607CE77C0004CC
:10577C000918A07C0097000609182068237D476B48
:10578C00627D2000B847F378212B00D10125280039
:08579C0007B0F0BD0025FAE79B
:1057A40070B50400FFF7EEFDFFF7B8FD217B05F0AF
:1057B40081FA23002200C833853225001A602000B4
:1057C40000234732843513607C302B7004F05EF97B
:1057D4002B78002B03D123682000DB6B984770BD26
:1057E40070B504002500FC35FFF7CCFD6E6A002E71
:1057F40005D0DE220E49FF320E4806F061FA23007E
:10580400D9332B62FFF78AFD617B05F0A5F9686245
:1058140025002000D8352E70D03004F037F92B78CD
:10582400002B03D1236820009B6B984770BDC046B2
:0858340081280210EB2702108D
:10583C0010B582684368006851104018D20701D532
:08584C000268D358984710BD13
:10585400F0B50400002687B002ADFFF793FDFFF713
:105864005DFDA17B032340220095059604F0AAFE6A
:105874002800FDF7E7FBFFF751FD164F164B217B80
:105884004022EF600393009502230294049604F0EF
:1058940099FE2800FDF7D6FBFFF740FD0F4B617B17
:1058A4004022EF600393009502230294049604F0CF
:1058B40089FE2800FDF7C6FBFFF730FD2200FC320D
:1058C400617B4023126A05F0E5F80120D83420708A
:1058D40007B0F0BDD8270210A5570010E5570010F7
:1058E400022370B543710023040083600C4B150040
:1058F40008330360703004F0BCF820007C3004F0FE
:10590400B8F82000D03004F0B4F82300FC339D62D2
:10591400FFF704FD2100FFF7BBFC200070BDC0466B
:04592400A0280210A5
:1059280070B504000D00FFF72BFD230078331D70C0
:10593800002D42D1260084363378002B05D0FFF79E
:10594800EBFC217B04F068FF357023002200250062
